:020000040000FA
:100000000C9434000C9451000C9451000C94510049
:100010000C9451000C9451000C9451000C9451001C
:100020000C9451000C9451000C9451000C9451000C
:100030000C9451000C9451000C9451000C945100FC
:100040000C94C0000C9451000C9451000C9451007D
:100050000C9451000C9451000C9451000C945100DC
:100060000C9451000C94510011241FBECFEFD8E026
:10007000DEBFCDBF11E0A0E0B1E0E8EEF2E002C0EB
:1000800005900D92A430B107D9F721E0A4E0B1E0CA
:1000900001C01D92AF30B207E1F70E940A010C9433
:1000A00072010C940000CF93DF9300D000D0CDB745
:1000B000DEB78823E1F019821A821B821C824981F3
:1000C0005A816B817C81483E5340610571056CF417
:1000D00049815A816B817C814F5F5F4F6F4F7F4FAA
:1000E00049835A836B837C83EACF8150E2CF0F90A0
:1000F0000F900F900F90DF91CF910895CF93DF93E2
:1001000000D01F92CDB7DEB78B8381E085B9809197
:10011000000190910101A0910201B09103010E94A0
:100120005300198289818830DCF48B812981082E63
:10013000000C990B02C0959587952A95E2F78A8362
:100140008A8185B98091000190910101A0910201FD
:10015000B09103010E94530089818F5F8983E2CFB0
:1001600015B88091000190910101A0910201B09118
:1001700003010F900F900F90DF91CF910C945300DB
:100180001F920F920FB60F9211242F933F938F93CC
:100190009F93AF93BF9380910B0190910C01A0911D
:1001A0000D01B0910E0130910A0123E0230F2D378C
:1001B00058F50196A11DB11D20930A0180930B01F2
:1001C00090930C01A0930D01B0930E018091060154
:1001D00090910701A0910801B09109010196A11D1C
:1001E000B11D8093060190930701A0930801B0937D
:1001F0000901BF91AF919F918F913F912F910F90E6
:100200000FBE0F901F90189526E8230F0296A11D90
:10021000B11DD2CFCF93DF9300D0CDB7DEB77894A6
:1002200084B5826084BD84B5816084BD85B58260FB
:1002300085BD85B5816085BD80916E0081608093AC
:100240006E00109281008091810082608093810015
:100250008091810081608093810080918000816025
:10026000809380008091B10084608093B100809180
:10027000B00081608093B00080917A0084608093A8
:100280007A0080917A00826080937A0080917A006F
:10029000816080937A0080917A00806880937A00F0
:1002A0001092C1001AB88FEF84B989B18A838A810C
:1002B00080930501809105018111F7CF89B1898370
:1002C00089818093050180910501813019F48FEFB8
:1002D0000E947E0080910501823061F781E80E94D2
:0C02E0007E00E8CFF894FFCF050000007E
:107E0000112484B714BE81FFF0D085E080938100F7
:107E100082E08093C00088E18093C10086E0809377
:107E2000C20080E18093C4008EE0C9D0259A86E02C
:107E300020E33CEF91E0309385002093840096BBD3
:107E4000B09BFECF1D9AA8958150A9F7CC24DD24C4
:107E500088248394B5E0AB2EA1E19A2EF3E0BF2EE7
:107E6000A2D0813461F49FD0082FAFD0023811F036
:107E7000013811F484E001C083E08DD089C08234E0
:107E800011F484E103C0853419F485E0A6D080C0E4
:107E9000853579F488D0E82EFF2485D0082F10E0AE
:107EA000102F00270E291F29000F111F8ED06801E7
:107EB0006FC0863521F484E090D080E0DECF843638
:107EC00009F040C070D06FD0082F6DD080E0C81688
:107ED00080E7D80618F4F601B7BEE895C0E0D1E017
:107EE00062D089930C17E1F7F0E0CF16F0E7DF06D8
:107EF00018F0F601B7BEE89568D007B600FCFDCFD4
:107F0000A601A0E0B1E02C9130E011968C91119780
:107F100090E0982F8827822B932B1296FA010C0160
:107F200087BEE89511244E5F5F4FF1E0A038BF0790
:107F300051F7F601A7BEE89507B600FCFDCF97BE46
:107F4000E89526C08437B1F42ED02DD0F82E2BD052
:107F50003CD0F601EF2C8F010F5F1F4F84911BD097
:107F6000EA94F801C1F70894C11CD11CFA94CF0C13
:107F7000D11C0EC0853739F428D08EE10CD085E9AC
:107F80000AD08FE07ACF813511F488E018D01DD067
:107F900080E101D065CF982F8091C00085FFFCCF94
:107FA0009093C60008958091C00087FFFCCF809118
:107FB000C00084FD01C0A8958091C6000895E0E648
:107FC000F0E098E1908380830895EDDF803219F02E
:107FD00088E0F5DFFFCF84E1DECF1F93182FE3DFCA
:107FE0001150E9F7F2DF1F91089580E0E8DFEE27F6
:047FF000FF270994CA
:027FFE00040479
:00000001FF
