:100000000C9434000C9451000C9451000C94510049
:100010000C9451000C9451000C9451000C9451001C
:100020000C9451000C9451000C9451000C9451000C
:100030000C9451000C9451000C9451000C945100FC
:100040000C94C0000C9451000C9451000C9451007D
:100050000C9451000C9451000C9451000C945100DC
:100060000C9451000C94510011241FBECFEFD8E026
:10007000DEBFCDBF11E0A0E0B1E0E8EEF2E002C0EB
:1000800005900D92A430B107D9F721E0A4E0B1E0CA
:1000900001C01D92AF30B207E1F70E940A010C9433
:1000A00072010C940000CF93DF9300D000D0CDB745
:1000B000DEB78823E1F019821A821B821C824981F3
:1000C0005A816B817C81483E5340610571056CF417
:1000D00049815A816B817C814F5F5F4F6F4F7F4FAA
:1000E00049835A836B837C83EACF8150E2CF0F90A0
:1000F0000F900F900F90DF91CF910895CF93DF93E2
:1001000000D01F92CDB7DEB78B8381E085B9809197
:10011000000190910101A0910201B09103010E94A0
:100120005300198289818830DCF48B812981082E63
:10013000000C990B02C0959587952A95E2F78A8362
:100140008A8185B98091000190910101A0910201FD
:10015000B09103010E94530089818F5F8983E2CFB0
:1001600015B88091000190910101A0910201B09118
:1001700003010F900F900F90DF91CF910C945300DB
:100180001F920F920FB60F9211242F933F938F93CC
:100190009F93AF93BF9380910B0190910C01A0911D
:1001A0000D01B0910E0130910A0123E0230F2D378C
:1001B00058F50196A11DB11D20930A0180930B01F2
:1001C00090930C01A0930D01B0930E018091060154
:1001D00090910701A0910801B09109010196A11D1C
:1001E000B11D8093060190930701A0930801B0937D
:1001F0000901BF91AF919F918F913F912F910F90E6
:100200000FBE0F901F90189526E8230F0296A11D90
:10021000B11DD2CFCF93DF9300D0CDB7DEB77894A6
:1002200084B5826084BD84B5816084BD85B58260FB
:1002300085BD85B5816085BD80916E0081608093AC
:100240006E00109281008091810082608093810015
:100250008091810081608093810080918000816025
:10026000809380008091B10084608093B100809180
:10027000B00081608093B00080917A0084608093A8
:100280007A0080917A00826080937A0080917A006F
:10029000816080937A0080917A00806880937A00F0
:1002A0001092C1001AB88FEF84B989B18A838A810C
:1002B00080930501809105018111F7CF89B1898370
:1002C00089818093050180910501813019F48FEFB8
:1002D0000E947E0080910501823061F781E80E94D2
:0802E0007E00E8CFF894FFCF87
:0402E800050000000D
:00000001FF
