:020000040000FA
:100000000C9434000C9451000C9451000C94510049
:100010000C9451000C9451000C9451000C9451001C
:100020000C9451000C9451000C9451000C9451000C
:100030000C9451000C9451000C9451000C945100FC
:100040000C947E000C9451000C9451000C945100BF
:100050000C9451000C9451000C9451000C945100DC
:100060000C9451000C94510011241FBECFEFD8E026
:10007000DEBFCDBF11E0A0E0B1E0E6E3F3E002C0F7
:1000800005900D92A430B107D9F721E0A4E0B1E0CA
:1000900001C01D92AF31B207E1F70E94C8000C9475
:1000A00099010C940000CF93DF9300D000D0CDB71E
:1000B000DEB78823E1F019821A821B821C824981F3
:1000C0005A816B817C81483E5340610571056CF417
:1000D00049815A816B817C814F5F5F4F6F4F7F4FAA
:1000E00049835A836B837C83EACF8150E2CF0F90A0
:1000F0000F900F900F90DF91CF9108951F920F9264
:100100000FB60F9211242F933F938F939F93AF932A
:10011000BF9380911B0190911C01A0911D01B09192
:100120001E0130911A0123E0230F2D3758F5019657
:10013000A11DB11D20931A0180931B0190931C01F6
:10014000A0931D01B0931E0180911601909117019B
:10015000A0911801B09119010196A11DB11D8093C4
:10016000160190931701A0931801B0931901BF9144
:10017000AF919F918F913F912F910F900FBE0F9054
:100180001F90189526E8230F0296A11DB11DD2CF0E
:10019000CF93DF93CDB7DEB728970FB6F894DEBFC5
:1001A0000FBECDBF789484B5826084BD84B5816074
:1001B00084BD85B5826085BD85B5816085BD809132
:1001C0006E00816080936E001092810080918100AA
:1001D00082608093810080918100816080938100A2
:1001E000809180008160809380008091B100846064
:1001F0008093B1008091B00081608093B0008091C5
:100200007A00846080937A0080917A008260809383
:100210007A0080917A00816080937A0080917A00E0
:10022000806880937A001092C1001AB88FEF84B969
:1002300087B91FE089B188878885809315018091EF
:1002400015018111F7CF89B18F838F8180931501BB
:1002500080911501813099F70E945300809100012F
:1002600090910101A0910201B09103010E945300FD
:100270001E828E81883014F589B18D838D818093A3
:1002800015018091150188B980911501EE81EE0F5D
:10029000FF0BEC5FFE4F082E000C990B91838083BF
:1002A0008091000190910101A0910201B0910301A0
:1002B0000E9453008E818F5F8E83DBCF89B18C8348
:1002C0008C818093150180911501811130C018B97E
:1002D00019821A828A8188300CF5EA81EE0FFF0BB1
:1002E000EC5FFE4F80819181892BA1F0EA81EE0FB6
:1002F000FF0BEC5FFE4F80819181892B59F02A81A1
:1003000091E080E082171CF4990F8F5FFBCF898109
:10031000890F89838A818F5F8A83DCCF89818B8370
:100320008B81809314018091140185B988CF80E07E
:0A033000F8CFF894FFCF050000009D
:107E0000112484B714BE81FFF0D085E080938100F7
:107E100082E08093C00088E18093C10086E0809377
:107E2000C20080E18093C4008EE0C9D0259A86E02C
:107E300020E33CEF91E0309385002093840096BBD3
:107E4000B09BFECF1D9AA8958150A9F7CC24DD24C4
:107E500088248394B5E0AB2EA1E19A2EF3E0BF2EE7
:107E6000A2D0813461F49FD0082FAFD0023811F036
:107E7000013811F484E001C083E08DD089C08234E0
:107E800011F484E103C0853419F485E0A6D080C0E4
:107E9000853579F488D0E82EFF2485D0082F10E0AE
:107EA000102F00270E291F29000F111F8ED06801E7
:107EB0006FC0863521F484E090D080E0DECF843638
:107EC00009F040C070D06FD0082F6DD080E0C81688
:107ED00080E7D80618F4F601B7BEE895C0E0D1E017
:107EE00062D089930C17E1F7F0E0CF16F0E7DF06D8
:107EF00018F0F601B7BEE89568D007B600FCFDCFD4
:107F0000A601A0E0B1E02C9130E011968C91119780
:107F100090E0982F8827822B932B1296FA010C0160
:107F200087BEE89511244E5F5F4FF1E0A038BF0790
:107F300051F7F601A7BEE89507B600FCFDCF97BE46
:107F4000E89526C08437B1F42ED02DD0F82E2BD052
:107F50003CD0F601EF2C8F010F5F1F4F84911BD097
:107F6000EA94F801C1F70894C11CD11CFA94CF0C13
:107F7000D11C0EC0853739F428D08EE10CD085E9AC
:107F80000AD08FE07ACF813511F488E018D01DD067
:107F900080E101D065CF982F8091C00085FFFCCF94
:107FA0009093C60008958091C00087FFFCCF809118
:107FB000C00084FD01C0A8958091C6000895E0E648
:107FC000F0E098E1908380830895EDDF803219F02E
:107FD00088E0F5DFFFCF84E1DECF1F93182FE3DFCA
:107FE0001150E9F7F2DF1F91089580E0E8DFEE27F6
:047FF000FF270994CA
:027FFE00040479
:00000001FF
