:020000040000FA
:100000000C9434000C9451000C9451000C94510049
:100010000C9451000C9451000C9451000C9451001C
:100020000C9451000C9451000C9451000C9451000C
:100030000C9451000C9451000C9451000C945100FC
:100040000C94DC000C9451000C9451000C94510061
:100050000C9451000C9451000C9451000C945100DC
:100060000C9451000C94510011241FBECFEFD8E026
:10007000DEBFCDBF11E0A0E0B1E0EAE7F4E002C0EE
:1000800005900D92A430B107D9F721E0A4E0B1E0CA
:1000900001C01D92A131B207E1F70E9426010C9424
:1000A0003B020C9400003FB7F89480910A019091B4
:1000B0000B01A0910C01B0910D0126B5A89B05C0C4
:1000C0002F3F19F00196A11DB11D3FBFBA2FA92FD7
:1000D000982F8827BC01CD01620F711D811D911DD4
:1000E00042E0660F771F881F991F4A95D1F7089540
:1000F0008F929F92AF92BF92CF92DF92EF92FF9238
:100100006B017C010E9453004B015C01C114D104BE
:10011000E104F104B9F00E945300681979098A09D1
:100120009B09683E73408105910580F321E0C21A66
:10013000D108E108F10888EE880E83E0981EA11C22
:10014000B11CE4CFFF90EF90DF90CF90BF90AF90C5
:100150009F908F900895CF93DF9300D0CDB7DEB7F7
:1001600089836A8389818130B1F489813A812091C0
:100170000401082E000C990B01C0880F3A95EAF78C
:10018000822B809304018091040185B90F900F9018
:10019000DF91CF91089589818111F5CF3A81209126
:1001A000040181E090E002C0880F991F3A95E2F7C0
:1001B000809590958223E5CF1F920F920FB60F92F4
:1001C00011242F933F938F939F93AF93BF9380916D
:1001D000060190910701A0910801B09109013091A9
:1001E000050123E0230F2D3758F50196A11DB11D00
:1001F000209305018093060190930701A0930801C5
:10020000B093090180910A0190910B01A0910C011A
:10021000B0910D010196A11DB11D80930A0190932B
:100220000B01A0930C01B0930D01BF91AF919F9171
:100230008F913F912F910F900FBE0F901F901895A7
:1002400026E8230F0296A11DB11DD2CFCF93DF93D5
:1002500000D000D000D01F92CDB7DEB7789484B51F
:10026000826084BD84B5816084BD85B5826085BDB2
:1002700085B5816085BD80916E00816080936E0040
:100280001092810080918100826080938100809132
:1002900081008160809381008091800081608093E3
:1002A00080008091B10084608093B1008091B000A3
:1002B00081608093B00080917A00846080937A009E
:1002C00080917A00826080937A0080917A008160C8
:1002D00080937A0080917A00806880937A001092EF
:1002E000C1001AB88BEF84B98FEF87B963E081E062
:1002F0000E94AB0064E081E00E94AB0065E081E019
:100300000E94AB0061E070E080E090E00E94780025
:10031000EE24E394F12C47E0D42E89B18F838F81B2
:1003200081708F838F8180931001809110018111E2
:10033000F4CF89B18E838E8181708E838E8180937C
:10034000100180911001813081F763E080E00E940C
:10035000AB0061E070E080E090E00E9478000091E6
:100360000201DD82002E000C110B8D8187FD7EC005
:100370008D81980102C0359527958A95E2F72C83E7
:100380008C8181708B838B8161E00E94AB0061E086
:1003900070E080E090E00E94780060E080E00E94E1
:1003A000AB006091000170910101072E000C880BD9
:1003B000990B0E94780060E081E00E94AB0083B15D
:1003C00089838981082E000C990B959587959595C1
:1003D0008795898389818170898389818A839091B6
:1003E0000F018A818130A1F580910E01970101C032
:1003F000220F9A95EAF7822B80930E0180910E01CD
:1004000088B980910F018F5F80930F016091000187
:1004100070910101072E000C880B990B0E94780047
:1004200060E080E00E94AB006091000170910101EA
:10043000072E000C880B990B0E94780061E070E099
:1004400080E090E00E9478008D8181508D838DCF77
:100450008111D4CF80910E01970102C0220F331F6A
:100460009A95E2F7209530958223C6CF63E081E02C
:0E0470000E94AB005ACFF894FFCF0500550054
:107E0000112484B714BE81FFF0D085E080938100F7
:107E100082E08093C00088E18093C10086E0809377
:107E2000C20080E18093C4008EE0C9D0259A86E02C
:107E300020E33CEF91E0309385002093840096BBD3
:107E4000B09BFECF1D9AA8958150A9F7CC24DD24C4
:107E500088248394B5E0AB2EA1E19A2EF3E0BF2EE7
:107E6000A2D0813461F49FD0082FAFD0023811F036
:107E7000013811F484E001C083E08DD089C08234E0
:107E800011F484E103C0853419F485E0A6D080C0E4
:107E9000853579F488D0E82EFF2485D0082F10E0AE
:107EA000102F00270E291F29000F111F8ED06801E7
:107EB0006FC0863521F484E090D080E0DECF843638
:107EC00009F040C070D06FD0082F6DD080E0C81688
:107ED00080E7D80618F4F601B7BEE895C0E0D1E017
:107EE00062D089930C17E1F7F0E0CF16F0E7DF06D8
:107EF00018F0F601B7BEE89568D007B600FCFDCFD4
:107F0000A601A0E0B1E02C9130E011968C91119780
:107F100090E0982F8827822B932B1296FA010C0160
:107F200087BEE89511244E5F5F4FF1E0A038BF0790
:107F300051F7F601A7BEE89507B600FCFDCF97BE46
:107F4000E89526C08437B1F42ED02DD0F82E2BD052
:107F50003CD0F601EF2C8F010F5F1F4F84911BD097
:107F6000EA94F801C1F70894C11CD11CFA94CF0C13
:107F7000D11C0EC0853739F428D08EE10CD085E9AC
:107F80000AD08FE07ACF813511F488E018D01DD067
:107F900080E101D065CF982F8091C00085FFFCCF94
:107FA0009093C60008958091C00087FFFCCF809118
:107FB000C00084FD01C0A8958091C6000895E0E648
:107FC000F0E098E1908380830895EDDF803219F02E
:107FD00088E0F5DFFFCF84E1DECF1F93182FE3DFCA
:107FE0001150E9F7F2DF1F91089580E0E8DFEE27F6
:047FF000FF270994CA
:027FFE00040479
:00000001FF
